:1000000000010020C1000000ED000000F100000030
:10001000F5000000F9000000FD00000000000000F5
:1000200000000000000000000000000001010000CE
:100030000501000000000000090100000D010000A2
:100040001101000011010000110100001101000068
:100050001101000011010000110100001101000058
:100060001101000011010000110100001101000048
:100070001101000015010000190100001D01000020
:100080002101000025010000290100002D010000D0
:1000900031010000350100000000000000000000F8
:1000A000390100003D010000410100000000000096
:1000B00045010000490100004D0100005101000010
:1000C00000B583B0074B019304E0019B1A1D019218
:1000D00000221A60019A044B9A42F6D300F01CFAEF
:1000E000FEE7C0460000002058000020FEE7C046A2
:1000F000FEE7C046FEE7C046FEE7C046FEE7C04654
:10010000FEE7C046FEE7C046FEE7C046FEE7C04643
:10011000FEE7C046FEE7C046FEE7C046FEE7C04633
:10012000FEE7C046FEE7C046FEE7C046FEE7C04623
:10013000FEE7C046FEE7C046FEE7C046FEE7C04613
:10014000FEE7C046FEE7C046FEE7C046FEE7C04603
:10015000FEE7C046044B1B680C331B685A1E9341D4
:10016000DBB218007047C046D8130000044B1B6870
:1001700008331B685A1E9341DBB218007047C04613
:10018000D8130000044B1B6804331B685A1E9341AC
:10019000DBB218007047C046D8130000034B1B6841
:1001A0001B685A1E9341DBB218007047D813000039
:1001B000044B1B6810331B685A1E9341DBB21800B6
:1001C0007047C046D8130000044B1B6808331B68F7
:1001D0005A1E9341DBB218007047C046D01300008E
:1001E000024B1B6804331B6818007047D0130000D3
:1001F000024B1B681B6818007047C046D0130000F4
:10020000024B1B6804331B6818007047D4130000AE
:10021000024B1B681B6818007047C046D4130000CF
:10022000024B1B6800221A60C0467047D4130000BE
:10023000044B1B6800221A60034B00221A60C04660
:100240007047C046D01300001800002082B0019013
:100250000091064B1B68009A1A60044B1B6804331C
:10026000019A1A60C04602B07047C046CC13000025
:1002700010B5FFF79DFF031E01D0012306E0FFF735
:10028000A3FF031EF5D0FFF7ABFF0023180010BD3E
:1002900000B585B000230393334B1B68642118001D
:1002A00000F070FA030000932F4B1A68009B642142
:1002B0004B43D31A0A21180000F064FA030001939B
:1002C000294B1A68009B64214B43D11A019A1300F1
:1002D0009B009B185B00CB1A0293FFF769FF031E7C
:1002E000DAD0FFF74FFF031E06D0039B01330393C1
:1002F000039B032BD0D135E0FFF738FF031ECBD093
:10030000039B002B08D1029B01330A21180000F047
:10031000BFFA0B00029316E0039B012B08D1019B4F
:1003200001330A21180000F0B3FA0B0001930AE030
:10033000039B022B07D1009B01330A21180000F018
:10034000A7FA0B000093009B64225A431100019A04
:1003500013009B009B185B00CA18029BD218024B2B
:100360001A6099E705B000BD0000002010B50F4BE2
:100370001A680F4B1B68191C101C00F0A1FA031E11
:1003800003D00B4B1A68094B1A60084B1B680949CC
:10039000181C00F0A9FA031E03D0074B01221A70A3
:1003A00003E0054B00221A70C04610BD0C0000206F
:1003B00044000020000020423400002010B584B02A
:1003C00001900091114B0393019800F03FFF041C32
:1003D000009800F03BFF031C0399181C00F07AFC06
:1003E000031C0B49181C00F0ABFA031C191C201C41
:1003F00000F070FC031C0649181C00F0A1FA031C55
:100400000293029B181C04B010BDC046C3F54840BF
:1004100000007A4410B584B0019000910949019818
:1004200000F058FC031C1C1C009800F00FFF031C7C
:10043000191C201C00F084FA031C0393039B181C56
:1004400004B010BD0000614500B585B00190009179
:10045000019A13001B019B1A9B000099180000F0E1
:1004600091F903000393039B0521180000F08AF91A
:1004700003000293029A13009B009B180393039BB3
:10048000180005B000BDC04610B5174B00221A6019
:10049000164BAF2292001A60154B00221A70154BB2
:1004A00000221A70144B00221A70144B00221A609A
:1004B000134B00221A60134B00221A60124B0022C9
:1004C0001A60124B00221A60114B00221A60114B65
:1004D00000221A600D4B1A680D4B1B6819001000A2
:1004E000FFF7B4FEC04610BD180000200000002039
:1004F000340000204C0000201400002010000020D8
:100500003C000020300000200C00002028000020CB
:10051000480000202C00002010B5FFF7B5FFFFF7C2
:10052000A7FE031E4FD0FFF715FE031E02D0FFF7F4
:10053000AFFE48E0FFF71AFE031E15D07C4B1B6888
:10054000002B05D17B4B00221A60FFF769FE3AE0D1
:10055000774B1B68012B36D1774B00221A60FFF7CF
:1005600067FEFFF75DFE2EE0FFF70CFE031E1ED0B8
:100570006F4B1B68002B03D16D4B01221A6012E0F8
:100580006B4B1B68012B03D1694B02221A600AE0F6
:10059000674B1B68022B03D1654B03221A6002E0F4
:1005A000634B00221A60654B01221A700BE0FFF7C3
:1005B000F5FD031E07D0624B1B78DB435A1E9341A7
:1005C000DAB25F4B1A70FFF71BFE02005D4B1A6038
:1005D000FFF71EFE02005C4B1A605B4B1A685B4B18
:1005E0001B6819001000FFF7E9FE021C514B1A604E
:1005F000504B1A68564B1B68191C101C00F07EFCEF
:10060000031C1A1C534B1A604A4B1A68504B1A6051
:10061000484B1B68181C00F07BF902004E4B1A6017
:10062000444B1C684C4B1B68180000F00FFE031C69
:10063000191C201C00F062FC031C4849181C00F027
:1006400049FB031C181C00F063F90200444B1A60BC
:10065000FFF7CEFD0200434B1A60424B1A68364B3F
:100660001B68D21A404B1A603A4B1A683E4B1B6803
:100670001900101CFFF7CEFE021C3C4B1A60394BD0
:100680001A682D4B1A60374B1A68E12319011000C4
:1006900000F078F803001A00354B1A60314B1A68E5
:1006A000E1231901100000F0F3F80B003C211800C1
:1006B00000F068F803001A002E4B1A602B4B1B68E1
:1006C000181C00F025F902002B4B1A60274B1C6800
:1006D000294B1B68180000F0B9FD031C191C201CD5
:1006E00000F00CFC031C1D49181C00F0F3FA031C5D
:1006F000181C00F00DF90200204B1A60114B1A680B
:10070000194B1B6819001000FFF79EFE02001C4BDE
:100710001A60FFF72BFE104B1A68114B1B6819006B
:100720001000FFF793FD054B00221A70F7E6C04654
:1007300020000020400000201800002014000020AD
:100740004C00002054000020500000200000002039
:100750002C00002010000020280000200000C842CB
:10076000480000200800002038000020440000203D
:10077000040000201C0000203C000020300000206D
:1007800024000020002243088B4274D303098B42CB
:100790005FD3030A8B4244D3030B8B4228D3030C51
:1007A0008B420DD3FF22090212BA030C8B4202D3F3
:1007B0001212090265D0030B8B4219D300E0090A1B
:1007C000C30B8B4201D3CB03C01A5241830B8B4224
:1007D00001D38B03C01A5241430B8B4201D34B030D
:1007E000C01A5241030B8B4201D30B03C01A524172
:1007F000C30A8B4201D3CB02C01A5241830A8B42F7
:1008000001D38B02C01A5241430A8B4201D34B02DF
:10081000C01A5241030A8B4201D30B02C01A524143
:10082000CDD2C3098B4201D3CB01C01A52418309F7
:100830008B4201D38B01C01A524143098B4201D331
:100840004B01C01A524103098B4201D30B01C01A5C
:100850005241C3088B4201D3CB00C01A52418308D6
:100860008B4201D38B00C01A524143088B4201D303
:100870004B00C01A5241411A00D201465241104663
:100880007047FFE701B5002000F006F802BDC04642
:100890000029F7D076E770477047C0468446081CA9
:1008A0006146FFE71FB500F0D1F9002801D400210F
:1008B000C8421FBD10B500F05DF94042013010BDC7
:1008C00010B500F0C3F9002801DB002010BD0120A5
:1008D00010BDC04610B500F0B9F9002801DD0020B8
:1008E00010BD012010BDC04610B500F06BF9002806
:1008F00001DC002010BD012010BDC04610B500F085
:1009000061F9002801DA002010BD012010BDC046A9
:100910009E2110B5C905041CFFF7F0FF002803D184
:10092000201C00F071FC10BD9E21201CC90500F0A8
:10093000E5FA00F069FC80231B069C466044F2E760
:10094000F0B5564644465F464D46F0B44402460074
:10095000C70F83B08846650A360EBA463DD0FF2ED3
:1009600022D00023EC00802599469B46ED042543C8
:100970007F3E43465C025800DB0F640A000E984637
:1009800036D0FF2830D080230021E400DB041C4354
:100990007F38301A0190484642460843724E800024
:1009A00030587A4013008746002D44D108239946D9
:1009B000063B9B46DDE70122FF2000241A4064022B
:1009C000C305640AD2071C431443200003B03CBC97
:1009D00090469946A246AB46F0BD002D20D1042397
:1009E0009946033B9B46C4E7002C17D1022102E045
:1009F000002C0AD10121321A01924A4643460A4389
:100A00005A48920082587B409746200000F05CFCD8
:100A1000431F76309C4040420021BAE70321B8E7EB
:100A2000280000F051FC431F9D40002376304642D1
:100A300099469B469DE70C239946093B9B4698E7C0
:100A400080240022E403FF20B9E70024C2468B463D
:100A50005A465346022AAED0032A7DD0012A31D10C
:100A6000012200201A400024A9E70122101A1B28A5
:100A700056DD1A4000200024A1E78023DB031D423D
:100A80004BD18023DB032B435C02640A3A00FF2036
:100A900095E76D016001854230D2019A0024013A48
:100AA00001921B220127290064006D00002901DB4F
:100AB000A84201D82D1A3C43013A002AF3D16A1EFC
:100AC00095412C4301987F300028CEDD620704D089
:100AD0000F222240042A00D00434220103D5244AE4
:100AE000019814408030FE2800DD64E70122A40153
:100AF000640AC0B21A4062E72C00A9E72D1A1A2234
:100B00000124CFE76B02BCD500248023DB031C4308
:100B10006402640A4246FF2051E71C42B3D1F4E765
:100B200021002022C140101A8440621E94410C43CF
:100B3000620704D00F222240042A00D0043462014C
:100B400004D5012201201A40002438E70122A40123
:100B5000640A1A40002032E78023DB031C4364024E
:100B6000640A5246FF202AE70413000044130000E1
:100B7000FFFFFFF7430270B542004C005D0AC30F50
:100B80004802120E460A240EC90FFF2A0FD0FF2C6E
:100B900011D00120A24200D070BDB542FCD18B42E1
:100BA0000DD0002AF8D12800431E9841F4E7012017
:100BB000002DF1D1EBE70120002EEDD1E9E7002077
:100BC000EAE7C0464302F0B542005D0AC30F48029F
:100BD000440A4800120E000EC90FFF2A1FD0FF283A
:100BE00022D0002A09D16E426E4100280FD1002C7C
:100BF0000DD10020002D09D005E0002801D1002CE6
:100C000001D08B4213D0584201231843F0BD002E6F
:100C1000F7D048424141012049420843F6E7002D00
:100C2000DDD002204042F1E7002CDAD0F9E7824221
:100C3000E9DC04DBA542E6D80020A542E6D2584212
:100C4000434101205B421843E0E7C0464302F0B550
:100C500042004C005E0AC30F4802120E450A240EE1
:100C6000C90FFF2A17D0FF2C19D0002A0BD17042D0
:100C70007041002C17D0002807D048424141012084
:100C800049420843F0BD002C13D08B4214D0584287
:100C900001231843F6E70220002EF3D1E3E70220F8
:100CA000002DEFD1E1E7002DE5D10020002EE9D0A5
:100CB000EDE7002DE9D1EAE7A242E8DC04DBAE4231
:100CC000E5D80020AE42DDD25842434101205B42CC
:100CD0001843D7E7F0B557464E4645464300E0B4C3
:100CE00046028846760A1F0EC40F002F47D0FF2FFA
:100CF00025D0002380259A469946F600ED042E4320
:100D00007F3F434642465D02D20F5B006D0A1B0ED9
:100D1000904640D0FF2B39D080220020ED00D20435
:100D200015437F3BFB1842465746591C62408C4690
:100D300007430F2F5CD86F49BF00C9598F46002E5B
:100D400045D108239A46063B9946DAE742460228EF
:100D50002DD0032800D1C3E0012800D0A2E0002557
:100D600000260240D4B27602ED05760A2E43E4074F
:100D7000264330001CBC90469946A246F0BD002E8A
:100D80001AD104239A46033B9946BAE72A00511E1A
:100D90008A41901CC6E70120002DC3D0280000F036
:100DA00093FA431F76309D4043420020BAE7012466
:100DB000FF2514400026D6E7300000F085FA431FD7
:100DC0009E400023763047429A46994699E70C2385
:100DD0009A46093B994694E780260024F603FF25AE
:100DE000C1E735004846B2E7350022004846AEE785
:100DF0002904090C0800370C3604360C2C0C7943F6
:100E0000704367437443060C64183619B14203D922
:100E100080214902884647440004000C3104091827
:100E20008D01681E8541890E2943350CED19AD01F0
:100E30000D43290104D5012369081D4063460D4374
:100E400019007F31002925DD680704D00F202840D4
:100E5000042800D00435280103D5274980330D40EC
:100E60001900FE29A3DC0124AD016E0A1440CDB2A5
:100E700079E78020C003064207D0054205D1284308
:100E80004602760A4446FF256DE706437602760A57
:100E9000FF2568E70124611A1B2905DD14400025A0
:100EA000002660E76346CBE72E002023CE40591A88
:100EB0008D406B1E9D412E43730704D00F2333409A
:100EC000042B00D00436730104D5012401251440FD
:100ED000002648E70124B601760A1440002542E7BF
:100EE00080260124F6032E437602760A1440FF255D
:100EF00039E7C04684130000FFFFFFF7F8B54A0248
:100F00004E0043024400240EC50F9B09360EC90F44
:100F10009209FF2E00D183E001204140A01BA9428D
:100F20005CD0002800DC95E0002E1CD1002A00D007
:100F300081E05A0704D00F221A40042A00D004335B
:100F40005A013BD50134FF2C00D191E001209B01D7
:100F50005B0AE4B205405B02E4055B0AED0723434C
:100F60002B431800F8BDFF2CE3D08021C9040A43AD
:100F70001B2800DD90E016002021C640081A8240A0
:100F8000511E8A4132439B1A5A0115D59B019E0975
:100F9000300000F099F90538864084426CDC041B6F
:100FA000330020200134E340041BA640721E96410A
:100FB00000243343BDE70D005A07BCD1DF080123ED
:100FC0001D40FF2C33D1002F00D190E08022D203AE
:100FD00013003B435B025B0AFF24BCE700284FDDA4
:100FE000002E2ED0FF2CA4D08025ED042A431B28F0
:100FF00000DD97E016002025C640281A8240501ECA
:10100000824132439B185A01D5D50134FF2C6DD053
:1010100001227B481A405B08034013430D0088E718
:10102000002A00D07AE777E7031EC5D100257B02AE
:101030005B0AE4B28FE701380028A4D0FF2C97D1D7
:1010400077E7002A00D174E701380028DAD0FF2CB6
:10105000CDD16EE7002821D1601CC0B2012858DD37
:1010600080279E1AFF0437402FD0D61A0D008FE735
:1010700001231D4000236EE7624B241A334058E7DA
:10108000002851D1601CC6B2012E33DDFF282DD0BF
:101090009B185B0804004CE7012274E7002C1AD06F
:1010A000FF2E1FD08024E404404223431B2800DD90
:1010B00096E01D002024C540201A8340581E83411D
:1010C0002B43D31A34000D005EE7002E00D05FE7FB
:1010D00000250024ABE7002B44D0C0430028F0D00B
:1010E000FF2EE3D11300FF240D0022E70D00FF24A3
:1010F000002330E7002C5DD1002B7DD0002A00D1E9
:1011000017E79B185A0100D456E73E4A04001340E3
:101110000FE7002C1ED1002B2FD1002A65D0130021
:101120000D0006E701226DE7002C1FD1002B59D0DE
:10113000C04300280BD0FF2E4FD01B285EDC1D00C3
:101140002024C540201A8340581E83412B439B18FE
:10115000340058E7002B1CD1002A49D013000D00A1
:10116000FF24E6E6130034000D00E2E6FF2E34D043
:101170008024E40440422343DFE7002A00D1D8E67C
:101180008027981AFF04074000D14DE7D31A0D00BD
:10119000CFE6FF24002A00D1CBE68020DB08C00385
:1011A000034204D0D208024201D113000D00DB003B
:1011B000FF24BEE6002B10D0FF24002A00D1B8E6A1
:1011C0008020DB08C003034203D0D208024200D1D2
:1011D0001300DB000D00FF24ABE61300FF24A8E69C
:1011E00001236EE713003400A3E6002700251EE765
:1011F00080270025FF03E9E613009AE60123A6E70E
:10120000FFFFFF7DFFFFFFFB4302590A4300C20FB0
:101210001B0E00207E2B0EDD9D2B0DDC802000049C
:101220000143952B0BDC9620C31AD9400B00584282
:10123000002A00D118007047034BD018FBE7963BFB
:1012400099400B00F3E7C046FFFFFF7F70B5041E17
:1012500028D000F039F89E231B1A962B0ADC962220
:10126000D21A94406202520AD8B25202520AC005FF
:10127000104370BD992B18DC9922D21A9440114A60
:101280002240610704D00F210C40042C00D004320E
:10129000510103D50B4B1A409F231B1A9201520A8E
:1012A000D8B2E2E700200022DFE705222500121A6B
:1012B000B921D5402200C91A8A40541EA2412C00EF
:1012C0001443DCE7FFFFFFFB1C2101231B049842B2
:1012D00001D3000C10391B0A984201D3000A0839C7
:1012E0001B09984201D30009043902A2105C40187E
:1012F0007047C04604030202010101010000000022
:1013000000000000920A0000B6090000740A000004
:101310004C0A0000740A0000400A0000740A000031
:101320004C0A0000B6090000B6090000400A00009F
:101330004C0A0000F80A0000F80A0000F80A000051
:101340007A0A0000B6090000B6090000600A000031
:101350004A0A0000600A0000400A0000600A00001B
:101360004A0A0000B6090000B6090000400A000061
:101370004A0A0000F80A0000F80A0000F80A000013
:10138000040B0000F00D00004E0D00004E0D00009B
:101390004C0D0000E20D0000E20D0000D80D000031
:1013A0004C0D0000E20D0000D80D0000E20D000021
:1013B0004C0D0000E80D0000E80D0000E80D0000F5
:0413C000720E0000A9
:1013C400000000D0000000C0000000A00000008069
:0813D400000000600000004071
:00000001FF
