:1000000000010020C1000000ED000000F100000030
:10001000F5000000F9000000FD00000000000000F5
:1000200000000000000000000000000001010000CE
:100030000501000000000000090100000D010000A2
:100040001101000011010000110100001101000068
:100050001101000011010000110100001101000058
:100060001101000011010000110100001101000048
:100070001101000015010000190100001D01000020
:100080002101000025010000290100002D010000D0
:1000900031010000350100000000000000000000F8
:1000A000390100003D010000410100000000000096
:1000B00045010000490100004D0100005101000010
:1000C00000B583B0074B019304E0019B1A1D019218
:1000D00000221A60019A044B9A42F6D300F08AF982
:1000E000FEE7C0460000002000000020FEE7C046FA
:1000F000FEE7C046FEE7C046FEE7C046FEE7C04654
:10010000FEE7C046FEE7C046FEE7C046FEE7C04643
:10011000FEE7C046FEE7C046FEE7C046FEE7C04633
:10012000FEE7C046FEE7C046FEE7C046FEE7C04623
:10013000FEE7C046FEE7C046FEE7C046FEE7C04613
:10014000FEE7C046FEE7C046FEE7C046FEE7C04603
:10015000FEE7C046044B1B680C331B685A1E9341D4
:10016000DBB218007047C04604230000044B1B6834
:1001700008331B685A1E9341DBB218007047C04613
:1001800004230000044B1B6804331B685A1E934170
:10019000DBB218007047C04604230000034B1B6805
:1001A0001B685A1E9341DBB21800704704230000FD
:1001B000044B1B6810331B685A1E9341DBB21800B6
:1001C0007047C04604230000044B1B6808331B68BB
:1001D0005A1E9341DBB218007047C046FC22000053
:1001E000024B1B6804331B6818007047FC22000098
:1001F000024B1B681B6818007047C046FC220000B9
:10020000024B1B6804331B68180070470023000072
:10021000024B1B681B6818007047C0460023000093
:10022000024B1B6800221A60C04670470023000082
:10023000024B1B6800221A60C0467047FC22000077
:1002400084B0039002910192084B1B68019A1A60D6
:10025000064B1B680433029A1A60044B1B68083370
:10026000039A1A60C04604B07047C046F8220000E6
:1002700000B585B00190002303930023029316E09C
:10028000019B0A21180000F0E3FA0B001A00029B00
:100290009A401300039A13430393019B0A21180009
:1002A00000F050FA03000193029B04330293019B78
:1002B000002BE5D1039B180005B000BD10B5FFF77A
:1002C00077FF031E01D0012304E0FFF77DFF031E2B
:1002D000F5D00023180010BD00B587B001900023B1
:1002E0000593019B6421180000F02CFA03000A21F9
:1002F000180000F0ADFA0B000493019B0A211800CE
:1003000000F020FA03000A21180000F0A1FA0B0007
:100310000393019B0A21180000F09AFA0B00029344
:10032000019AFA239900100000F092FA0B001800CD
:10033000FFF79EFF0300002219000E20FFF780FF49
:10034000FFF736FF031EFBD0FFF71CFF031E07D08D
:10035000059B01330593059B032BF1D1019B46E0DF
:10036000FFF704FF031EEBD0059B002B08D1049B75
:1003700001330A21180000F055FB0B00049316E02E
:10038000059B012B08D1039B01330A21180000F0C3
:1003900049FB0B0003930AE0059B022B07D1029B4C
:1003A00001330A21180000F03DFB0B000293049B6F
:1003B00064225343FA22D2009918039A13009B0037
:1003C0009B185B00CA18029BD3180193019AFA2369
:1003D0009900100000F03CFA0B001800FFF748FFEE
:1003E0000300002219000E20FFF72AFFA8E71800DB
:1003F00007B000BD10B594B0C64B11934F236B44AA
:1004000000221A7000230A9300230E9300230B93FB
:1004100000230F93002308930023079300230D93D9
:100420000A231293129B002200211800FFF708FFF5
:10043000FFF744FF031E2ED0FFF78CFE031E06D0ED
:10044000119B1800FFF748FF0300119323E0FFF70B
:100450008DFE031E04D0FFF7E3FEFFF7E9FE1AE06E
:10046000FFF790FE031E09D0129B0C2B02D90A2322
:10047000129310E0129B013312930CE0FFF78EFEF3
:10048000031E08D04F236B441B78DA434F236B4481
:10049000511E8A411A70FFF7B3FE03000393FFF762
:1004A000A7FE03001093FFF7B3FE03000293FFF7CC
:1004B00097FE0300180001F047F9031C9649181C29
:1004C00000F0BCFC031C0193029B119A53431800DB
:1004D00001F03AF9031C9149181C00F0AFFC031C11
:1004E000181C01F0A9FD8E4A8E4B01F06BF9030038
:1004F0000C001800210001F0F3FD031C0C930C9874
:1005000001F09AFD884A894B00F0BCFA031E01D025
:10051000874B0C930B990C9800F06EFF031C009313
:100520000C9B0B930021009800F0CCFA031E01D025
:100530000F9B1093109B0F931B236B4401221A7087
:100540007C49009800F044FE031C0199181C00F03F
:1005500075FC031C0993099801F06EFD724A734BF8
:1005600000F090FA031E01D0714B0993089800F037
:10057000D7FA0400079800F0D3FA03009C420ED18A
:10058000099800F0CDFA0400089800F0C9FA0300B9
:100590009C4210D01B236B4400221A700BE0099878
:1005A00000F0BEFA0400079800F0BAFA03009C427B
:1005B00001D1099B0893089B0793099B08931B2370
:1005C0006B441B7801225340DBB2002B01D0079B08
:1005D000099301990A9800F0BBFA031C0A930E9A3A
:1005E000039BD3180E9354490A9800F085FA031E12
:1005F00027D00E9A13001B019B1A9B00180001F0D4
:10060000A3F8031C0A99181C00F018FC031C181C02
:1006100000F086FA03000D930D9B0521180000F0F1
:1006200091F803001A0013009B009B180D93002300
:100630000A9300230E930D9B404A934201D93F4BEE
:100640000D93129B0A2B18D10C9800F069FA030045
:100650000593059801F078F8031C191C0C9800F01C
:10066000CBFE031C3649181C00F0B2FD031C181CFD
:1006700000F056FA030004933BE0129B0B2B15D1BC
:10068000109AE1231901100000F05CF803000593B3
:10069000109AE1231901100000F0DAF80B003C2158
:1006A000180000F04FF80300049322E0129B0C2B7B
:1006B00018D1099800F034FA03000593059801F069
:1006C00043F8031C191C099800F096FE031C1C49F2
:1006D000181C00F07DFD031C181C00F021FA03001B
:1006E000049306E0129B0D2B03D10D9B0593002371
:1006F0000493059B1800FFF7BBFD0400049B180042
:10070000FFF7B6FD0200129B21001800FFF798FDCD
:100710008EE6C0465808000000007A440024744960
:100720007B14AE47E17A843F8FC2F5285CFF5840C6
:10073000E1FAC7420000614500002041E7030000E4
:100740000000C842002243088B4274D303098B4245
:100750005FD3030A8B4244D3030B8B4228D3030C91
:100760008B420DD3FF22090212BA030C8B4202D333
:100770001212090265D0030B8B4219D300E0090A5B
:10078000C30B8B4201D3CB03C01A5241830B8B4264
:1007900001D38B03C01A5241430B8B4201D34B034D
:1007A000C01A5241030B8B4201D30B03C01A5241B2
:1007B000C30A8B4201D3CB02C01A5241830A8B4237
:1007C00001D38B02C01A5241430A8B4201D34B0220
:1007D000C01A5241030A8B4201D30B02C01A524184
:1007E000CDD2C3098B4201D3CB01C01A5241830938
:1007F0008B4201D38B01C01A524143098B4201D372
:100800004B01C01A524103098B4201D30B01C01A9C
:100810005241C3088B4201D3CB00C01A5241830816
:100820008B4201D38B00C01A524143088B4201D343
:100830004B00C01A5241411A00D2014652411046A3
:100840007047FFE701B5002000F0F0F802BDC04698
:100850000029F7D076E7704703460B437FD4002288
:1008600043088B4274D303098B425FD3030A8B4244
:1008700044D3030B8B4228D3030C8B420DD3FF22AE
:10088000090212BA030C8B4202D31212090265D07C
:10089000030B8B4219D300E0090AC30B8B4201D32F
:1008A000CB03C01A5241830B8B4201D38B03C01A76
:1008B0005241430B8B4201D34B03C01A5241030BED
:1008C0008B4201D30B03C01A5241C30A8B4201D39E
:1008D000CB02C01A5241830A8B4201D38B02C01A49
:1008E0005241430A8B4201D34B02C01A5241030AC0
:1008F0008B4201D30B02C01A5241CDD2C3098B42A5
:1009000001D3CB01C01A524183098B4201D38B0121
:10091000C01A524143098B4201D34B01C01A5241C4
:1009200003098B4201D30B01C01A5241C3088B4209
:1009300001D3CB00C01A524183088B4201D38B00F4
:10094000C01A524143088B4201D34B00C01A524196
:10095000411A00D201465241104670475DE0CA0F6D
:1009600000D04942031000D34042534000229C462D
:1009700003098B422DD3030A8B4212D3FC22890137
:1009800012BA030A8B420CD3890192118B4208D30D
:10099000890192118B4204D389013AD0921100E06F
:1009A0008909C3098B4201D3CB01C01A5241830983
:1009B0008B4201D38B01C01A524143098B4201D3B0
:1009C0004B01C01A524103098B4201D30B01C01ADB
:1009D0005241C3088B4201D3CB00C01A5241830855
:1009E0008B4201D38B00C01A5241D9D243088B42AB
:1009F00001D34B00C01A5241411A00D2014663464E
:100A000052415B10104601D34042002B00D54942B1
:100A1000704763465B1000D3404201B5002000F0F0
:100A200005F802BD0029F8D016E770477047C046A8
:100A30008446101C62468C46191C634600E0C04682
:100A40001FB501F08FFA002801D40021C8421FBD54
:100A500010B501F0E3F94042013010BD10B501F0CE
:100A600081FA002801DB002010BD012010BDC04626
:100A700010B501F077FA002801DD002010BD01203B
:100A800010BDC04610B501F009FA002801DC0020B5
:100A900010BD012010BDC04610B501F0FFF90028BF
:100AA00001DA002010BD012010BDC0468446081C9C
:100AB0006146FFE71FB500F047FB002801D4002185
:100AC000C8421FBD10B500F0D3FA4042013010BD3E
:100AD00010B500F039FB002801DB002010BD01201B
:100AE00010BDC04610B500F02FFB002801DD00202E
:100AF00010BD012010BDC04610B500F0E1FA00287D
:100B000001DC002010BD012010BDC04610B500F072
:100B1000D7FA002801DA002010BD012010BDC04620
:100B20009E2110B5C905041CFFF7F0FF002803D172
:100B3000201C00F0E7FD10BD9E21201CC90500F01F
:100B40005BFC00F0DFFD80231B069C466044F2E75F
:100B5000F8B54A02430244004E00C50F240E280097
:100B60009B09360EC90F92098D4259D0A01B00284F
:100B700000DC8DE0002E1AD1002A00D079E05A075F
:100B800004D00F221A40042A00D004335A0138D569
:100B90000134FF2C00D189E028009B015B0AE4B2FC
:100BA0005B02E4055B0A2343C0071843F8BDFF2C32
:100BB000E5D08021C9040A431B2800DD89E0160026
:100BC0002021C640081A8240511E8A4132439B1A96
:100BD0005A0114D59B019E09300001F00DFB053828
:100BE0008640844265DC041B330020200134E3404E
:100BF000041BA640721E964100243343BFE75A07E8
:100C0000BFD1DF082800FF2C2FD1002F00D187E0B3
:100C10008022D20313003B435B025B0AFF24BFE741
:100C2000A11B002949DD002E29D0FF2CA7D080264A
:100C3000F60432431B2900DD8DE017002026CF404B
:100C4000711A8A40511E8A413A439B185A01D6D5DF
:100C50000134FF2C64D0012276491A405B080B4016
:100C600013438CE7031ECAD100207B025B0AE4B267
:100C700096E701380028AAD0FF2C9DD17FE7002AF3
:100C800000D17CE701390029DFD0FF2CD2D176E7F3
:100C9000002820D1601CC0B2012853DD80279E1A95
:100CA000FF0437402FD0D61A0D0095E72800002307
:100CB00076E7614B241A334061E700294DD1611C6E
:100CC000CEB2012E2FDDFF292AD09B185B080C0025
:100CD00055E701227BE7002C1BD1002B5BD0C043E2
:100CE00000280CD0FF2E7ED01B2800DD92E01D00D6
:100CF0002024C540201A8340581E83412B43D31A19
:100D000034000D0064E7002E00D065E700200024C9
:100D1000ABE7FF2E67D08024E40440422343E3E79F
:100D2000FF2400233CE7002C61D1002B7ED0002A59
:100D300000D124E79B185A0100D460E73E4A0C001A
:100D400013401CE7002C1ED1002B2FD1002A66D0A7
:100D500013000D0013E7012277E7002C1FD1002BB1
:100D60005AD0C94300290BD0FF2E50D01B295FDC7D
:100D70001F002024CF40611A8B40591E8B413B43FA
:100D80009B18340062E7002B1CD1002A4AD01300C4
:100D90000D00FF24F3E6130034000D00EFE6FF2EF4
:100DA00035D08024E40449422343DFE7002A00D100
:100DB000E5E68027981AFF04074000D152E7D31ACE
:100DC0000D00DCE6FF24002A00D1D8E68020DB08F5
:100DD000C003034204D0D208024201D113000D0027
:100DE000DB00FF24CBE61300FF240D00C7E6002B39
:100DF0000DD0FF24002A00D1C1E68021DB08C90301
:100E00000B42EDD0D2080A42EAD11300E8E7130002
:100E1000FF24B4E6012372E713003400AFE6002795
:100E2000002022E780270020FF03F1E61300A6E65A
:100E30000123A5E7FFFFFF7DFFFFFFFBF0B556464F
:100E400044465F464D46F0B444024600C70F83B0A7
:100E50008846650A360EBA463DD0FF2E22D00023C2
:100E6000EC00802599469B46ED0425437F3E434692
:100E70005C025800DB0F640A000E984636D0FF284B
:100E800030D080230021E400DB041C437F38301A7B
:100E90000190484642460843724E800030587A40DE
:100EA00013008746002D44D108239946063B9B46F4
:100EB000DDE70122FF2000241A406402C305640A12
:100EC000D2071C431443200003B03CBC9046994613
:100ED000A246AB46F0BD002D20D104239946033B2A
:100EE0009B46C4E7002C17D1022102E0002C0AD156
:100EF0000121321A01924A4643460A435A48920057
:100F000082587B409746200001F076F9431F7630E7
:100F10009C4040420021BAE70321B8E7280001F0D5
:100F20006BF9431F9D4000237630464299469B460D
:100F30009DE70C239946093B9B4698E780240022B5
:100F4000E403FF20B9E70024C2468B465A465346C5
:100F5000022AAED0032A7DD0012A31D101220020FD
:100F60001A400024A9E70122101A1B2856DD1A4056
:100F700000200024A1E78023DB031D424BD1802306
:100F8000DB032B435C02640A3A00FF2095E76D0106
:100F90006001854230D2019A0024013A01921B225D
:100FA0000127290064006D00002901DBA84201D857
:100FB0002D1A3C43013A002AF3D16A1E95412C4375
:100FC00001987F300028CEDD620704D00F22224036
:100FD000042A00D00434220103D5244A0198144085
:100FE0008030FE2800DD64E70122A401640AC0B25B
:100FF0001A4062E72C00A9E72D1A1A220124CFE734
:101000006B02BCD500248023DB031C436402640A0A
:101010004246FF2051E71C42B3D1F4E721002022D1
:10102000C140101A8440621E94410C43620704D0F0
:101030000F222240042A00D00434620104D5012288
:1010400001201A40002438E70122A401640A1A4052
:10105000002032E78023DB031C436402640A52460B
:10106000FF202AE73422000074220000FFFFFFF770
:10107000430270B542004C005D0AC30F4802120ED5
:10108000460A240EC90FFF2A0FD0FF2C11D00120D1
:10109000A24200D070BDB542FCD18B420DD0002AD7
:1010A000F8D12800431E9841F4E70120002DF1D12A
:1010B000EBE70120002EEDD1E9E70020EAE7C0468A
:1010C0004302F0B542005D0AC30F4802440A4800DB
:1010D000120E000EC90FFF2A1FD0FF2822D0002AAF
:1010E00009D16E426E4100280FD1002C0DD1002095
:1010F000002D09D005E0002801D1002C01D08B4241
:1011000013D0584201231843F0BD002EF7D04842B7
:101110004141012049420843F6E7002DDDD002207D
:101120004042F1E7002CDAD0F9E78242E9DC04DB47
:10113000A542E6D80020A542E6D25842434101200C
:101140005B421843E0E7C0464302F0B542004C0062
:101150005E0AC30F4802120E450A240EC90FFF2A69
:1011600017D0FF2C19D0002A0BD170427041002CEF
:1011700017D0002807D04842414101204942084386
:10118000F0BD002C13D08B4214D0584201231843D9
:10119000F6E70220002EF3D1E3E70220002DEFD185
:1011A000E1E7002DE5D10020002EE9D0EDE7002D8C
:1011B000E9D1EAE7A242E8DC04DBAE42E5D8002050
:1011C000AE42DDD25842434101205B421843D7E78B
:1011D000F0B557464E4645464300E0B446028846C1
:1011E000760A1F0EC40F002F47D0FF2F25D00023F3
:1011F00080259A469946F600ED042E437F3F4346EC
:1012000042465D02D20F5B006D0A1B0E904640D035
:10121000FF2B39D080220020ED00D20415437F3B04
:10122000FB1842465746591C62408C4607430F2F15
:101230005CD86F49BF00C9598F46002E45D108239D
:101240009A46063B9946DAE7424602282DD0032803
:1012500000D1C3E0012800D0A2E000250026024012
:10126000D4B27602ED05760A2E43E4072643300019
:101270001CBC90469946A246F0BD002E1AD104230C
:101280009A46033B9946BAE72A00511E8A41901CB0
:10129000C6E70120002DC3D0280000F0ADFF431F9A
:1012A00076309D4043420020BAE70124FF251440D8
:1012B0000026D6E7300000F09FFF431F9E4000232A
:1012C000763047429A46994699E70C239A46093B5D
:1012D000994694E780260024F603FF25C1E73500F0
:1012E0004846B2E7350022004846AEE72904090C1B
:1012F0000800370C3604360C2C0C794370436743D6
:101300007443060C64183619B14203D9802149028E
:10131000884647440004000C310409188D01681EFA
:101320008541890E2943350CED19AD010D43290185
:1013300004D5012369081D4063460D4319007F3120
:10134000002925DD680704D00F202840042800D09C
:101350000435280103D5274980330D401900FE29A3
:10136000A3DC0124AD016E0A1440CDB279E78020E0
:10137000C003064207D0054205D128434602760A3B
:101380004446FF256DE706437602760AFF2568E7A7
:101390000124611A1B2905DD14400025002660E7A1
:1013A0006346CBE72E002023CE40591A8D406B1E9A
:1013B0009D412E43730704D00F233340042B00D0EC
:1013C0000436730104D5012401251440002648E7A2
:1013D0000124B601760A1440002542E78026012444
:1013E000F6032E437602760A1440FF2539E7C046FD
:1013F000B4220000FFFFFFF7F8B54A024E00430297
:101400004400240EC50F9B09360EC90F9209FF2E0A
:1014100000D183E001204140A01BA9425CD00028FC
:1014200000DC95E0002E1CD1002A00D081E05A0794
:1014300004D00F221A40042A00D004335A013BD5AD
:101440000134FF2C00D191E001209B015B0AE4B242
:1014500005405B02E4055B0AED0723432B431800BC
:10146000F8BDFF2CE3D08021C9040A431B2800DD0E
:1014700090E016002021C640081A8240511E8A4181
:1014800032439B1A5A0115D59B019E09300000F08A
:10149000B3FE0538864084426CDC041B33002020F8
:1014A0000134E340041BA640721E964100243343DE
:1014B000BDE70D005A07BCD1DF0801231D40FF2CFA
:1014C00033D1002F00D190E08022D20313003B43A0
:1014D0005B025B0AFF24BCE700284FDD002E2ED004
:1014E000FF2CA4D08025ED042A431B2800DD97E0C3
:1014F00016002025C640281A8240501E82413243E1
:101500009B185A01D5D50134FF2C6DD001227B48A0
:101510001A405B08034013430D0088E7002A00D0FF
:101520007AE777E7031EC5D100257B025B0AE4B2A8
:101530008FE701380028A4D0FF2C97D177E7002A45
:1015400000D174E701380028DAD0FF2CCDD16EE746
:10155000002821D1601CC0B2012858DD80279E1AC6
:10156000FF0437402FD0D61A0D008FE701231D400E
:1015700000236EE7624B241A334058E7002851D10C
:10158000601CC6B2012E33DDFF282DD09B185B08EE
:1015900004004CE7012274E7002C1AD0FF2E1FD064
:1015A0008024E404404223431B2800DD96E01D0014
:1015B0002024C540201A8340581E83412B43D31A50
:1015C00034000D005EE7002E00D05FE70025002408
:1015D000ABE7002B44D0C0430028F0D0FF2EE3D16E
:1015E0001300FF240D0022E70D00FF24002330E745
:1015F000002C5DD1002B7DD0002A00D117E79B186D
:101600005A0100D456E73E4A040013400FE7002C6D
:101610001ED1002B2FD1002A65D013000D0006E744
:1016200001226DE7002C1FD1002B59D0C0430028A8
:101630000BD0FF2E4FD01B285EDC1D002024C540A0
:10164000201A8340581E83412B439B18340058E7CF
:10165000002B1CD1002A49D013000D00FF24E6E620
:10166000130034000D00E2E6FF2E34D08024E404A1
:1016700040422343DFE7002A00D1D8E68027981AAA
:10168000FF04074000D14DE7D31A0D00CFE6FF2439
:10169000002A00D1CBE68020DB08C003034204D03F
:1016A000D208024201D113000D00DB00FF24BEE688
:1016B000002B10D0FF24002A00D1B8E68020DB08E0
:1016C000C003034203D0D208024200D11300DB0062
:1016D0000D00FF24ABE61300FF24A8E601236EE70C
:1016E00013003400A3E6002700251EE7802700250D
:1016F000FF03E9E613009AE60123A6E7FFFFFF7D5B
:10170000FFFFFFFB4302590A4300C20F1B0E0020DC
:101710007E2B0EDD9D2B0DDC802000040143952BDC
:101720000BDC9620C31AD9400B005842002A00D186
:1017300018007047034BD018FBE7963B99400B000D
:10174000F3E7C046FFFFFF7F70B5041E28D000F00E
:1017500053FD9E231B1A962B0ADC9622D21A944024
:101760006202520AD8B25202520AC005104370BD3A
:10177000992B18DC9922D21A9440114A2240610711
:1017800004D00F210C40042C00D00432510103D5A9
:101790000B4B1A409F231B1A9201520AD8B2E2E760
:1017A00000200022DFE705222500121AB921D540CA
:1017B0002200C91A8A40541EA2412C001443DCE7BF
:1017C000FFFFFFFBF8B556465F464D464446F0B472
:1017D0000F00FD0FAA4609037C002E005F00450F95
:1017E000490A7F0D2943C5001803BC46400A570F1C
:1017F000640DDB0F3843D2009A4500D1AAE066465B
:10180000A61B002E00DCFFE06346002B39D103004D
:10181000134300D0D9E06B0709D00F232B40042BD2
:1018200005D02B1DAB42AD416D4249191D000B0285
:1018300000D482E0CA4B01349C4200D1FEE00A0091
:101840005646C84BED081A4050076405520205433E
:10185000120B640D002112030B0D1B056405120B06
:101860001A436308C04CF60714401C436400640824
:101870003443280021003CBC90469946A246AB4622
:10188000F8BDB74B9C42C6D080231B041843382EAA
:1018900000DDEBE01F2E00DD1EE120239B1B9C469C
:1018A00003006746BB40984613004746F3403B435E
:1018B0006746BA40571EBA4113430200F240EB1A82
:1018C0009D42B6411D008A1A7642911B0B0231D50A
:1018D0004A02560A002E00D1B4E0300000F08CFC21
:1018E0000300083B1F2B00DDB5E020222900D21A9F
:1018F000D1409E400A009D4032439C4200DDB1E051
:101900001C1B631C1F2B00DDD5E0202114002800C8
:10191000C91A8C40D8408D400443DA40681E854186
:1019200011002543002476E74146314300D134E2DB
:10193000310045466B0700D06FE756464807ED0873
:10194000C9080543864B9C4235D00A036405120B37
:10195000640D7FE76346E31A9B46002B00DC8BE0B7
:101960006746002F3CD07E4FBC4200D153E7802712
:101970003F0438435B46382B00DCF7E00243501E3F
:1019800082410020D2B253194218AB4289411D0056
:10199000494289180B02CDD5714B01349C4200D1CC
:1019A0003DE101206F4A6B080A4028401843D507E3
:1019B000054351082FE72B000B4300D1CBE18023D7
:1019C0001B030B431A03120B44E7013E002E6DD19B
:1019D000AE1AB5429B41091A5B42C91A350075E738
:1019E0000700174300D116E701235B429C46E344FE
:1019F0005B46002B00D0E0E0AA18AA429B410918E0
:101A00005B4259181500C5E7002E75D1661C760596
:101A1000760D012E00DCF3E0AE1AB0464545BF411D
:101A20000E1A7F42F61B370200D48FE0551BAA42E4
:101A3000B641411A76428E1B9A464BE75646002223
:101A4000002507E7280000F0D7FB20300300083B03
:101A50001F2B00DC49E72A002838824000259C42E1
:101A600000DC4DE73F49E41A1140D4E60243501E22
:101A70008241D3B2002222E7002B00D0F3E0631CA6
:101A80009C465B055B0D012B00DC9FE0344B9C45C5
:101A900000D1C3E0AA180918AA4280414042411867
:101AA000CD075208154349086446B4E62C4B9C42C6
:101AB00000D0ECE6AFE611001F3CE1400C00202B0B
:101AC00000D17FE04021CB1A9A4015436A1E954110
:101AD0000021254300242DE733000700203BDF4091
:101AE0003B00202E70D04027BE1BB0400243501E4A
:101AF000824113430022E2E6002C4FD0184CA4454B
:101B000000D1ABE08024240476422143382E00DD4E
:101B1000DFE01F2E00DD43E12027BC1BA1460C00A7
:101B20004F46BC40A0462C004746F4403C434F463D
:101B3000BD406F1EBD41F1402C43151BAA4292418E
:101B4000411A5242891A64469A46BFE641464546C2
:101B5000314300D0BEE6002600240025F2E6C04650
:101B6000FF070000FFFF7FFFFFFF0F801F2B59DCE7
:101B70002027FF1ABC46070063469F405B46B946D4
:101B80001700DF40B8464F4643461F4363469A401E
:101B9000531E9A415B463A43D840F4E60C002C436E
:101BA0005CD0F643002E55D1551BAA42A441411AE0
:101BB0006442091B9A46644688E6964FBC4200D0B0
:101BC000D8E628E6002280E700208FE70B002B43B1
:101BD000002C00D0C2E0002B00D101E10300134330
:101BE00000D118E6AB18AB42B6410918764271181D
:101BF0000A0200D409E1884A1D00114064460AE641
:101C0000002C5BD10E002E4300D08AE0010011436E
:101C100000D1C2E0010015009A46FCE564460021AF
:101C200000258FE620235B429C46DC446346070088
:101C3000DF405B46BC46202B00D1ACE040235F4632
:101C4000DB1B98400243501E8241634613431A0037
:101C5000002098E66F4CA44500D057E7010015001E
:101C600064469A46D7E5002C39D10C002C436ED03F
:101C7000DB43002B1AD0674CA44568D0382B00DD1D
:101C8000A4E01F2B00DDAEE020240F00E41AA740E3
:101C9000B9462F00DF40B846A3464F464446274387
:101CA0005C46A5406C1EA541D9403D43AD18954208
:101CB0009B4109185B42591864466BE60C002C43A3
:101CC00015D1010011437BD0010015009A46514CFB
:101CD000A1E50D43691E8D410021ECB22DE74D4C6D
:101CE000A44534D0802424045B422143C6E7040089
:101CF00014434ED0ED084C072C438025C9082D0312
:101D0000294208D0C6082E4205D1D2084107114306
:101D10000C009A463100620FC900E50011433D4CAA
:101D200079E50600164300D175E5AE1AB046454583
:101D3000BF410E1A7F42F61B370200D4F4E5551B53
:101D4000AA42B641411A7642891B9A4663E50100D0
:101D5000150064465FE5002200257BE5002B3BD0A3
:101D60000300134315D0ED084B072B438025C9080A
:101D70002D03294207D0C4082C4204D141070B008F
:101D80002100D2081343C9005A0F1143DD00214C32
:101D900041E5204C3FE5002054E700260025D1E531
:101DA00034000F00203CE7403C00202E2BD0402781
:101DB000BE1BB1400D43691E8D4100212C43BCE682
:101DC000802100260903134C0025BBE50D43691E45
:101DD0008D410021EDB269E7010015000D4C1AE5B7
:101DE0000100150017E51C000F00203CE7403C00F7
:101DF000202B0CD04027FB1A99400D43691E8D41C2
:101E00000021254352E70021D4E71D0092E500217F
:101E1000F3E7C046FF070000FFFF7FFFF0B55F4616
:101E200056464D464446F0B41F035C00DB0F9A460D
:101E3000194B0E034D00C90F8046360B6D0D8B46B6
:101E400091463F0B640D9D4219D0134B9C421BD011
:101E50000123A54206D018003CBC90469946A246F4
:101E6000AB46F0BDBE42F6D1C845F4D1D34510D043
:101E7000002DF0D1304303005A1E9341EBE73100AF
:101E800001230143E7D1E0E73A430123002AE2D1ED
:101E9000DEE70023DFE7C046FF070000F0B55F463E
:101EA000444656464D46F0B41F033C0B2C4F0E03E0
:101EB0004D00A3465C008446360B6D0DC90F90465D
:101EC000640DDB0FBD422BD0254FBC422ED0002D20
:101ED0000ED130430700814678427841002C17D15B
:101EE0005F463A4314D14B460020002B0AD006E04F
:101EF000002C02D15846024301D099421AD0012346
:101F0000484218433CBC90469946A246AB46F0BDB9
:101F10000028F2D058425841012240421043F1E7D4
:101F200037000743D0D002204042EBE75F4617431B
:101F3000CDD0F8E7A542E2DC05DB5E45DFD808D06E
:101F400000205E45DED2484248410123404218430A
:101F5000D8E7C445D3D80020C445F4D3D2E7C0465F
:101F6000FF070000F0B55F464D4644465646F0B4C4
:101F70001C03240BA4462F4C0F034D005E00C90F19
:101F800080463F0B6D0D8B469146760DDB0FA542CB
:101F900020D0284CA64222D0002D12D138434442F2
:101FA0004441002E20D0002C0DD05C42634101241E
:101FB0005B421C4320003CBC90469946A246AB467F
:101FC000F0BD002E17D05B4519D05B465C42012363
:101FD0001C43EFE7390002240143EBD1D9E7614606
:101FE00002241143E6D1D7E761460A43DBD100243E
:101FF0000028DFD0E9E761460A43E4D1E5E7B542CE
:1020000003DD01225C421443D4E7B542CDDB6745D2
:10201000DBD809D000246745CCD259464C426141F7
:10202000012449420C43C5E7C845CED80024C84521
:10203000F3D3BFE7FF0700004200120E511C43021A
:10204000C9B270B55D0AC40F012915DDE021890010
:102050008C466D071B0B6244002128000D0D2D05D9
:102060002B431C4D52052B40520813435B00E407E1
:102070005B082343190070BD002A15D1002D1FD025
:10208000280000F0B9F80A281DDC0B232A001B1ACF
:10209000DA4013000200153295400F4A1B03121A52
:1020A00052051B0B520DD7E7002D06D080221B0BCB
:1020B000120313436D07094ACEE7084A0023CBE712
:1020C00000220023C8E703000B3B9D402B000025A6
:1020D000E3E7C046FFFF0F8089030000FF07000011
:1020E0004B0070B55E0D0C03751C640A420F6D0544
:1020F0002243C90FC4006D0D012D2ADD3B4BF3189F
:10210000FE2B1ADC002B42DD8001451EA841D200C7
:102110001043620F0243500704D00F2010400428E0
:1021200000D004328020C004104021D00133FF2BA6
:1021300003D09201520ADBB201E0FF2300225202D7
:10214000520ADB0513435B00C9075B080B43180009
:1021500070BD002E07D01443EFD08020D200800441
:102160000243FF23D7E722430023002A03D005229E
:10217000D208FF2B03D05202520ADBB2DFE7002A5B
:1021800032D08020C00302435202520AD7E718001F
:10219000173014DB8020000402431E20C01A1F28C1
:1021A0000FDC2500124BF3189D406E1EB5419A407E
:1021B0002B0013432200C2401A430023ABE7002345
:1021C000D5E702256D42EB1A1500DD40202809D025
:1021D000084BF3189A401443621E944122000023D6
:1021E0002A4398E70022F6E70022A8E780FCFFFFD9
:1021F00082FCFFFFA2FCFFFF1C2101231B0498426D
:1022000001D3000C10391B0A984201D3000A083987
:102210001B09984201D30009043902A2105C40183E
:102220007047C046040302020101010100000000E2
:10223000000000008E0F0000B20E0000700F0000C2
:10224000480F0000700F00003C0F0000700F0000EE
:10225000480F0000B20E0000B20E00003C0F00005C
:10226000480F0000F40F0000F40F0000F40F00000E
:10227000760F0000B20E0000B20E00005C0F0000EE
:10228000460F00005C0F00003C0F00005C0F0000D8
:10229000460F0000B20E0000B20E00003C0F00001E
:1022A000460F0000F40F0000F40F0000F40F0000D0
:1022B00000100000EC1200004A1200004A12000058
:1022C00048120000DE120000DE120000D4120000EE
:1022D00048120000DE120000D4120000DE120000DE
:1022E00048120000E4120000E4120000E4120000B2
:0422F0006E13000069
:1022F400000000C0000000A000000080000000609A
:042304000000004095
:00000001FF
